{
  "contractName": "EnergyManagement",
  "abi": [
    {
      "inputs": [
        {
          "internalType": "address",
          "name": "",
          "type": "address"
        }
      ],
      "name": "balances",
      "outputs": [
        {
          "internalType": "uint256",
          "name": "",
          "type": "uint256"
        }
      ],
      "stateMutability": "view",
      "type": "function",
      "constant": true
    },
    {
      "inputs": [
        {
          "internalType": "uint256",
          "name": "",
          "type": "uint256"
        }
      ],
      "name": "energySales",
      "outputs": [
        {
          "internalType": "string",
          "name": "sellerName",
          "type": "string"
        },
        {
          "internalType": "address",
          "name": "sellerAddress",
          "type": "address"
        },
        {
          "internalType": "uint256",
          "name": "energy",
          "type": "uint256"
        },
        {
          "internalType": "uint256",
          "name": "price",
          "type": "uint256"
        }
      ],
      "stateMutability": "view",
      "type": "function",
      "constant": true
    },
    {
      "inputs": [
        {
          "internalType": "address",
          "name": "",
          "type": "address"
        },
        {
          "internalType": "uint256",
          "name": "",
          "type": "uint256"
        }
      ],
      "name": "managerToUsers",
      "outputs": [
        {
          "internalType": "address",
          "name": "",
          "type": "address"
        }
      ],
      "stateMutability": "view",
      "type": "function",
      "constant": true
    },
    {
      "inputs": [],
      "name": "panelCount",
      "outputs": [
        {
          "internalType": "uint256",
          "name": "",
          "type": "uint256"
        }
      ],
      "stateMutability": "view",
      "type": "function",
      "constant": true
    },
    {
      "inputs": [
        {
          "internalType": "address",
          "name": "",
          "type": "address"
        },
        {
          "internalType": "uint256",
          "name": "",
          "type": "uint256"
        }
      ],
      "name": "userPanels",
      "outputs": [
        {
          "internalType": "uint256",
          "name": "id",
          "type": "uint256"
        },
        {
          "internalType": "uint256",
          "name": "capacity",
          "type": "uint256"
        },
        {
          "internalType": "string",
          "name": "location",
          "type": "string"
        },
        {
          "internalType": "uint256",
          "name": "producedEnergy",
          "type": "uint256"
        },
        {
          "internalType": "uint256",
          "name": "consumedEnergy",
          "type": "uint256"
        },
        {
          "internalType": "uint256",
          "name": "energyBalance",
          "type": "uint256"
        },
        {
          "internalType": "uint256",
          "name": "efficiency",
          "type": "uint256"
        },
        {
          "internalType": "address",
          "name": "owner",
          "type": "address"
        }
      ],
      "stateMutability": "view",
      "type": "function",
      "constant": true
    },
    {
      "inputs": [
        {
          "internalType": "address",
          "name": "",
          "type": "address"
        },
        {
          "internalType": "uint256",
          "name": "",
          "type": "uint256"
        }
      ],
      "name": "userTransactions",
      "outputs": [
        {
          "internalType": "string",
          "name": "from",
          "type": "string"
        },
        {
          "internalType": "string",
          "name": "to",
          "type": "string"
        },
        {
          "internalType": "uint256",
          "name": "energyProduced",
          "type": "uint256"
        },
        {
          "internalType": "uint256",
          "name": "energyConsumed",
          "type": "uint256"
        },
        {
          "internalType": "uint256",
          "name": "tokensTransferred",
          "type": "uint256"
        },
        {
          "internalType": "uint256",
          "name": "timestamp",
          "type": "uint256"
        }
      ],
      "stateMutability": "view",
      "type": "function",
      "constant": true
    },
    {
      "inputs": [
        {
          "internalType": "address",
          "name": "",
          "type": "address"
        }
      ],
      "name": "users",
      "outputs": [
        {
          "internalType": "string",
          "name": "username",
          "type": "string"
        },
        {
          "internalType": "string",
          "name": "actualName",
          "type": "string"
        },
        {
          "internalType": "bytes32",
          "name": "passwordHash",
          "type": "bytes32"
        },
        {
          "internalType": "bool",
          "name": "registered",
          "type": "bool"
        },
        {
          "internalType": "bool",
          "name": "isManager",
          "type": "bool"
        }
      ],
      "stateMutability": "view",
      "type": "function",
      "constant": true
    },
    {
      "inputs": [
        {
          "internalType": "string",
          "name": "_username",
          "type": "string"
        },
        {
          "internalType": "string",
          "name": "_actualName",
          "type": "string"
        },
        {
          "internalType": "bytes32",
          "name": "_passwordHash",
          "type": "bytes32"
        },
        {
          "internalType": "bool",
          "name": "_isManager",
          "type": "bool"
        }
      ],
      "name": "register",
      "outputs": [],
      "stateMutability": "nonpayable",
      "type": "function"
    },
    {
      "inputs": [
        {
          "internalType": "string",
          "name": "_username",
          "type": "string"
        },
        {
          "internalType": "string",
          "name": "_actualName",
          "type": "string"
        },
        {
          "internalType": "bytes32",
          "name": "_passwordHash",
          "type": "bytes32"
        },
        {
          "internalType": "address[]",
          "name": "_users",
          "type": "address[]"
        }
      ],
      "name": "registerManagerWithUsers",
      "outputs": [],
      "stateMutability": "nonpayable",
      "type": "function"
    },
    {
      "inputs": [
        {
          "internalType": "address",
          "name": "_user",
          "type": "address"
        },
        {
          "internalType": "uint256",
          "name": "_id",
          "type": "uint256"
        },
        {
          "internalType": "uint256",
          "name": "_capacity",
          "type": "uint256"
        },
        {
          "internalType": "string",
          "name": "_location",
          "type": "string"
        },
        {
          "internalType": "uint256",
          "name": "_producedEnergy",
          "type": "uint256"
        },
        {
          "internalType": "uint256",
          "name": "_consumedEnergy",
          "type": "uint256"
        },
        {
          "internalType": "uint256",
          "name": "_efficiency",
          "type": "uint256"
        }
      ],
      "name": "addPanelToUser",
      "outputs": [],
      "stateMutability": "nonpayable",
      "type": "function"
    },
    {
      "inputs": [
        {
          "internalType": "string",
          "name": "_username",
          "type": "string"
        },
        {
          "internalType": "bytes32",
          "name": "_passwordHash",
          "type": "bytes32"
        }
      ],
      "name": "login",
      "outputs": [
        {
          "internalType": "bool",
          "name": "",
          "type": "bool"
        }
      ],
      "stateMutability": "view",
      "type": "function",
      "constant": true
    },
    {
      "inputs": [
        {
          "internalType": "uint256",
          "name": "_energy",
          "type": "uint256"
        },
        {
          "internalType": "uint256",
          "name": "_price",
          "type": "uint256"
        }
      ],
      "name": "postEnergyForSale",
      "outputs": [],
      "stateMutability": "nonpayable",
      "type": "function"
    },
    {
      "inputs": [
        {
          "internalType": "uint256",
          "name": "saleIndex",
          "type": "uint256"
        },
        {
          "internalType": "uint256",
          "name": "_amount",
          "type": "uint256"
        }
      ],
      "name": "buyEnergy",
      "outputs": [],
      "stateMutability": "payable",
      "type": "function",
      "payable": true
    },
    {
      "inputs": [
        {
          "internalType": "uint256",
          "name": "_panelId",
          "type": "uint256"
        },
        {
          "internalType": "uint256",
          "name": "_energy",
          "type": "uint256"
        }
      ],
      "name": "produceEnergy",
      "outputs": [],
      "stateMutability": "nonpayable",
      "type": "function"
    },
    {
      "inputs": [
        {
          "internalType": "uint256",
          "name": "_panelId",
          "type": "uint256"
        },
        {
          "internalType": "uint256",
          "name": "_energy",
          "type": "uint256"
        }
      ],
      "name": "consumeEnergy",
      "outputs": [],
      "stateMutability": "nonpayable",
      "type": "function"
    },
    {
      "inputs": [],
      "name": "displayTotalEnergyHistory",
      "outputs": [
        {
          "internalType": "uint256",
          "name": "produced",
          "type": "uint256"
        },
        {
          "internalType": "uint256",
          "name": "consumed",
          "type": "uint256"
        }
      ],
      "stateMutability": "view",
      "type": "function",
      "constant": true
    },
    {
      "inputs": [],
      "name": "displayTransactions",
      "outputs": [
        {
          "components": [
            {
              "internalType": "string",
              "name": "from",
              "type": "string"
            },
            {
              "internalType": "string",
              "name": "to",
              "type": "string"
            },
            {
              "internalType": "uint256",
              "name": "energyProduced",
              "type": "uint256"
            },
            {
              "internalType": "uint256",
              "name": "energyConsumed",
              "type": "uint256"
            },
            {
              "internalType": "uint256",
              "name": "tokensTransferred",
              "type": "uint256"
            },
            {
              "internalType": "uint256",
              "name": "timestamp",
              "type": "uint256"
            }
          ],
          "internalType": "struct EnergyManagement.Transaction[]",
          "name": "",
          "type": "tuple[]"
        }
      ],
      "stateMutability": "view",
      "type": "function",
      "constant": true
    },
    {
      "inputs": [],
      "name": "displayPanels",
      "outputs": [
        {
          "components": [
            {
              "internalType": "uint256",
              "name": "id",
              "type": "uint256"
            },
            {
              "internalType": "uint256",
              "name": "capacity",
              "type": "uint256"
            },
            {
              "internalType": "string",
              "name": "location",
              "type": "string"
            },
            {
              "internalType": "uint256",
              "name": "producedEnergy",
              "type": "uint256"
            },
            {
              "internalType": "uint256",
              "name": "consumedEnergy",
              "type": "uint256"
            },
            {
              "internalType": "uint256",
              "name": "energyBalance",
              "type": "uint256"
            },
            {
              "internalType": "uint256",
              "name": "efficiency",
              "type": "uint256"
            },
            {
              "internalType": "address",
              "name": "owner",
              "type": "address"
            }
          ],
          "internalType": "struct EnergyManagement.Panel[]",
          "name": "",
          "type": "tuple[]"
        }
      ],
      "stateMutability": "view",
      "type": "function",
      "constant": true
    },
    {
      "inputs": [],
      "name": "getAvailableEnergySales",
      "outputs": [
        {
          "components": [
            {
              "internalType": "string",
              "name": "sellerName",
              "type": "string"
            },
            {
              "internalType": "address",
              "name": "sellerAddress",
              "type": "address"
            },
            {
              "internalType": "uint256",
              "name": "energy",
              "type": "uint256"
            },
            {
              "internalType": "uint256",
              "name": "price",
              "type": "uint256"
            }
          ],
          "internalType": "struct EnergyManagement.EnergySale[]",
          "name": "",
          "type": "tuple[]"
        }
      ],
      "stateMutability": "view",
      "type": "function",
      "constant": true
    },
    {
      "inputs": [
        {
          "internalType": "uint256",
          "name": "panelId",
          "type": "uint256"
        },
        {
          "internalType": "uint256",
          "name": "energyAmount",
          "type": "uint256"
        }
      ],
      "name": "allocateEnergyToPanel",
      "outputs": [],
      "stateMutability": "nonpayable",
      "type": "function"
    },
    {
      "inputs": [
        {
          "internalType": "uint256",
          "name": "panelId",
          "type": "uint256"
        },
        {
          "internalType": "uint256",
          "name": "amount",
          "type": "uint256"
        }
      ],
      "name": "reduceEnergyBalance",
      "outputs": [],
      "stateMutability": "nonpayable",
      "type": "function"
    },
    {
      "inputs": [],
      "name": "displayManagedPanels",
      "outputs": [
        {
          "components": [
            {
              "internalType": "uint256",
              "name": "id",
              "type": "uint256"
            },
            {
              "internalType": "uint256",
              "name": "capacity",
              "type": "uint256"
            },
            {
              "internalType": "string",
              "name": "location",
              "type": "string"
            },
            {
              "internalType": "uint256",
              "name": "producedEnergy",
              "type": "uint256"
            },
            {
              "internalType": "uint256",
              "name": "consumedEnergy",
              "type": "uint256"
            },
            {
              "internalType": "uint256",
              "name": "energyBalance",
              "type": "uint256"
            },
            {
              "internalType": "uint256",
              "name": "efficiency",
              "type": "uint256"
            },
            {
              "internalType": "address",
              "name": "owner",
              "type": "address"
            }
          ],
          "internalType": "struct EnergyManagement.Panel[]",
          "name": "",
          "type": "tuple[]"
        }
      ],
      "stateMutability": "view",
      "type": "function",
      "constant": true
    },
    {
      "inputs": [],
      "name": "displayManagedTransactions",
      "outputs": [
        {
          "components": [
            {
              "internalType": "string",
              "name": "from",
              "type": "string"
            },
            {
              "internalType": "string",
              "name": "to",
              "type": "string"
            },
            {
              "internalType": "uint256",
              "name": "energyProduced",
              "type": "uint256"
            },
            {
              "internalType": "uint256",
              "name": "energyConsumed",
              "type": "uint256"
            },
            {
              "internalType": "uint256",
              "name": "tokensTransferred",
              "type": "uint256"
            },
            {
              "internalType": "uint256",
              "name": "timestamp",
              "type": "uint256"
            }
          ],
          "internalType": "struct EnergyManagement.Transaction[]",
          "name": "",
          "type": "tuple[]"
        }
      ],
      "stateMutability": "view",
      "type": "function",
      "constant": true
    }
  ],
  "bytecode": "0x60806040525f600655348015610013575f80fd5b50615eae80620000225f395ff3fe60806040526004361061013f575f3560e01c806366ccc7dd116100b5578063a52eb3e61161006e578063a52eb3e614610463578063a87430ba1461048d578063b842ec44146104cd578063ba7453e41461050e578063c5f3c53614610536578063cdb6d52d146105615761013f565b806366ccc7dd146103525780636e52c8a71461037c57806387856a69146103a4578063895ae837146103e757806396879ef014610411578063a1f97b341461043b5761013f565b806327e235e31161010757806327e235e3146102235780632e3651501461025f5780634111326d1461028757806347b20faa146102c657806351c48acb1461030257806359f7eaf91461032a5761013f565b806304f7540614610143578063074ab7b01461017f57806309195021146101a95780630e84db25146101d1578063264f1935146101fb575b5f80fd5b34801561014e575f80fd5b5061016960048036038101906101649190614088565b61057d565b60405161017691906140fc565b60405180910390f35b34801561018a575f80fd5b5061019361084c565b6040516101a09190614301565b60405180910390f35b3480156101b4575f80fd5b506101cf60048036038101906101ca9190614375565b6109a0565b005b3480156101dc575f80fd5b506101e5610bb4565b6040516101f29190614596565b60405180910390f35b348015610206575f80fd5b50610221600480360381019061021c91906145b6565b610df7565b005b34801561022e575f80fd5b50610249600480360381019061024491906145f4565b6111bd565b604051610256919061462e565b60405180910390f35b34801561026a575f80fd5b50610285600480360381019061028091906145b6565b6111d2565b005b348015610292575f80fd5b506102ad60048036038101906102a89190614647565b6116d5565b6040516102bd94939291906146c9565b60405180910390f35b3480156102d1575f80fd5b506102ec60048036038101906102e79190614713565b6117b5565b6040516102f99190614751565b60405180910390f35b34801561030d575f80fd5b5061032860048036038101906103239190614794565b6117fd565b005b348015610335575f80fd5b50610350600480360381019061034b91906145b6565b6119b1565b005b34801561035d575f80fd5b50610366611c58565b6040516103739190614978565b60405180910390f35b348015610387575f80fd5b506103a2600480360381019061039d91906145b6565b61211c565b005b3480156103af575f80fd5b506103ca60048036038101906103c59190614713565b6125b6565b6040516103de989796959493929190614998565b60405180910390f35b3480156103f2575f80fd5b506103fb6126b9565b6040516104089190614596565b60405180910390f35b34801561041c575f80fd5b50610425612b57565b604051610432919061462e565b60405180910390f35b348015610446575f80fd5b50610461600480360381019061045c91906145b6565b612b5d565b005b34801561046e575f80fd5b50610477612e93565b6040516104849190614978565b60405180910390f35b348015610498575f80fd5b506104b360048036038101906104ae91906145f4565b6130fc565b6040516104c4959493929190614a2a565b60405180910390f35b3480156104d8575f80fd5b506104f360048036038101906104ee9190614713565b613252565b60405161050596959493929190614a89565b60405180910390f35b348015610519575f80fd5b50610534600480360381019061052f9190614bba565b6133b0565b005b348015610541575f80fd5b5061054a613415565b604051610558929190614c72565b60405180910390f35b61057b600480360381019061057691906145b6565b6135e2565b005b5f805f803373ffffffffffffffffffffffffffffffffffffffff1673ffffffffffffffffffffffffffffffffffffffff1681526020019081526020015f206040518060a00160405290815f820180546105d590614cc6565b80601f016020809104026020016040519081016040528092919081815260200182805461060190614cc6565b801561064c5780601f106106235761010080835404028352916020019161064c565b820191905f5260205f20905b81548152906001019060200180831161062f57829003601f168201915b5050505050815260200160018201805461066590614cc6565b80601f016020809104026020016040519081016040528092919081815260200182805461069190614cc6565b80156106dc5780601f106106b3576101008083540402835291602001916106dc565b820191905f5260205f20905b8154815290600101906020018083116106bf57829003601f168201915b5050505050815260200160028201548152602001600382015f9054906101000a900460ff161515151581526020016003820160019054906101000a900460ff1615151515815250509050806060015161076a576040517f08c379a000000000000000000000000000000000000000000000000000000000815260040161076190614d40565b60405180910390fd5b8360405160200161077b9190614d98565b60405160208183030381529060405280519060200120815f01516040516020016107a59190614d98565b60405160208183030381529060405280519060200120146107fb576040517f08c379a00000000000000000000000000000000000000000000000000000000081526004016107f290614df8565b60405180910390fd5b82816040015114610841576040517f08c379a000000000000000000000000000000000000000000000000000000000815260040161083890614e60565b60405180910390fd5b600191505092915050565b60606005805480602002602001604051908101604052809291908181526020015f905b82821015610997578382905f5260205f2090600402016040518060800160405290815f8201805461089f90614cc6565b80601f01602080910402602001604051908101604052809291908181526020018280546108cb90614cc6565b80156109165780601f106108ed57610100808354040283529160200191610916565b820191905f5260205f20905b8154815290600101906020018083116108f957829003601f168201915b50505050508152602001600182015f9054906101000a900473ffffffffffffffffffffffffffffffffffffffff1673ffffffffffffffffffffffffffffffffffffffff1673ffffffffffffffffffffffffffffffffffffffff168152602001600282015481526020016003820154815250508152602001906001019061086f565b50505050905090565b5f808873ffffffffffffffffffffffffffffffffffffffff1673ffffffffffffffffffffffffffffffffffffffff1681526020019081526020015f206003015f9054906101000a900460ff16610a2b576040517f08c379a0000000000000000000000000000000000000000000000000000000008152600401610a2290614eee565b60405180910390fd5b5f828411610a39575f610a46565b8284610a459190614f39565b5b905060015f8973ffffffffffffffffffffffffffffffffffffffff1673ffffffffffffffffffffffffffffffffffffffff1681526020019081526020015f206040518061010001604052808981526020018881526020018781526020018681526020018581526020018381526020018481526020018a73ffffffffffffffffffffffffffffffffffffffff16815250908060018154018082558091505060019003905f5260205f2090600802015f909190919091505f820151815f0155602082015181600101556040820151816002019081610b229190615109565b50606082015181600301556080820151816004015560a0820151816005015560c0820151816006015560e0820151816007015f6101000a81548173ffffffffffffffffffffffffffffffffffffffff021916908373ffffffffffffffffffffffffffffffffffffffff160217905550505060065f815480929190610ba5906151d8565b91905055505050505050505050565b60605f803373ffffffffffffffffffffffffffffffffffffffff1673ffffffffffffffffffffffffffffffffffffffff1681526020019081526020015f206003015f9054906101000a900460ff16610c41576040517f08c379a0000000000000000000000000000000000000000000000000000000008152600401610c389061528f565b60405180910390fd5b60015f3373ffffffffffffffffffffffffffffffffffffffff1673ffffffffffffffffffffffffffffffffffffffff1681526020019081526020015f20805480602002602001604051908101604052809291908181526020015f905b82821015610dee578382905f5260205f209060080201604051806101000160405290815f820154815260200160018201548152602001600282018054610ce290614cc6565b80601f0160208091040260200160405190810160405280929190818152602001828054610d0e90614cc6565b8015610d595780601f10610d3057610100808354040283529160200191610d59565b820191905f5260205f20905b815481529060010190602001808311610d3c57829003601f168201915b5050505050815260200160038201548152602001600482015481526020016005820154815260200160068201548152602001600782015f9054906101000a900473ffffffffffffffffffffffffffffffffffffffff1673ffffffffffffffffffffffffffffffffffffffff1673ffffffffffffffffffffffffffffffffffffffff168152505081526020019060010190610c9d565b50505050905090565b5f803373ffffffffffffffffffffffffffffffffffffffff1673ffffffffffffffffffffffffffffffffffffffff1681526020019081526020015f206003015f9054906101000a900460ff16610e82576040517f08c379a0000000000000000000000000000000000000000000000000000000008152600401610e799061531d565b60405180910390fd5b5f8111610ec4576040517f08c379a0000000000000000000000000000000000000000000000000000000008152600401610ebb906153ab565b60405180910390fd5b5f5b60015f3373ffffffffffffffffffffffffffffffffffffffff1673ffffffffffffffffffffffffffffffffffffffff1681526020019081526020015f208054905081101561117d578260015f3373ffffffffffffffffffffffffffffffffffffffff1673ffffffffffffffffffffffffffffffffffffffff1681526020019081526020015f208281548110610f5e57610f5d6153c9565b5b905f5260205f2090600802015f01540361116a5760015f3373ffffffffffffffffffffffffffffffffffffffff1673ffffffffffffffffffffffffffffffffffffffff1681526020019081526020015f208181548110610fc157610fc06153c9565b5b905f5260205f209060080201600101548260015f3373ffffffffffffffffffffffffffffffffffffffff1673ffffffffffffffffffffffffffffffffffffffff1681526020019081526020015f208381548110611021576110206153c9565b5b905f5260205f2090600802016005015461103b91906153f6565b111561107c576040517f08c379a000000000000000000000000000000000000000000000000000000000815260040161107390615473565b60405180910390fd5b8160015f3373ffffffffffffffffffffffffffffffffffffffff1673ffffffffffffffffffffffffffffffffffffffff1681526020019081526020015f2082815481106110cc576110cb6153c9565b5b905f5260205f2090600802016003015f8282546110e991906153f6565b925050819055508160015f3373ffffffffffffffffffffffffffffffffffffffff1673ffffffffffffffffffffffffffffffffffffffff1681526020019081526020015f2082815481106111405761113f6153c9565b5b905f5260205f2090600802016005015f82825461115d91906153f6565b92505081905550506111b9565b8080611175906151d8565b915050610ec6565b506040517f08c379a00000000000000000000000000000000000000000000000000000000081526004016111b0906154db565b60405180910390fd5b5050565b6003602052805f5260405f205f915090505481565b5f803373ffffffffffffffffffffffffffffffffffffffff1673ffffffffffffffffffffffffffffffffffffffff1681526020019081526020015f206003015f9054906101000a900460ff1661125d576040517f08c379a000000000000000000000000000000000000000000000000000000000815260040161125490615569565b60405180910390fd5b5f5b60015f3373ffffffffffffffffffffffffffffffffffffffff1673ffffffffffffffffffffffffffffffffffffffff1681526020019081526020015f20805490508110156116d0578260015f3373ffffffffffffffffffffffffffffffffffffffff1673ffffffffffffffffffffffffffffffffffffffff1681526020019081526020015f2082815481106112f7576112f66153c9565b5b905f5260205f2090600802015f0154036116bd5760015f3373ffffffffffffffffffffffffffffffffffffffff1673ffffffffffffffffffffffffffffffffffffffff1681526020019081526020015f20818154811061135a576113596153c9565b5b905f5260205f209060080201600101548260015f3373ffffffffffffffffffffffffffffffffffffffff1673ffffffffffffffffffffffffffffffffffffffff1681526020019081526020015f2083815481106113ba576113b96153c9565b5b905f5260205f209060080201600501546113d491906153f6565b1115611415576040517f08c379a000000000000000000000000000000000000000000000000000000000815260040161140c90615473565b60405180910390fd5b8160015f3373ffffffffffffffffffffffffffffffffffffffff1673ffffffffffffffffffffffffffffffffffffffff1681526020019081526020015f208281548110611465576114646153c9565b5b905f5260205f2090600802016003015f82825461148291906153f6565b925050819055508160015f3373ffffffffffffffffffffffffffffffffffffffff1673ffffffffffffffffffffffffffffffffffffffff1681526020019081526020015f2082815481106114d9576114d86153c9565b5b905f5260205f2090600802016005015f8282546114f691906153f6565b925050819055505f805f3373ffffffffffffffffffffffffffffffffffffffff1673ffffffffffffffffffffffffffffffffffffffff1681526020019081526020015f205f01805461154790614cc6565b80601f016020809104026020016040519081016040528092919081815260200182805461157390614cc6565b80156115be5780601f10611595576101008083540402835291602001916115be565b820191905f5260205f20905b8154815290600101906020018083116115a157829003601f168201915b5050505050905060025f3373ffffffffffffffffffffffffffffffffffffffff1673ffffffffffffffffffffffffffffffffffffffff1681526020019081526020015f206040518060c0016040528083815260200160405180602001604052805f81525081526020018581526020015f81526020015f815260200142815250908060018154018082558091505060019003905f5260205f2090600602015f909190919091505f820151815f0190816116769190615109565b50602082015181600101908161168c9190615109565b5060408201518160020155606082015181600301556080820151816004015560a082015181600501555050506116d0565b80806116c8906151d8565b91505061125f565b505050565b600581815481106116e4575f80fd5b905f5260205f2090600402015f91509050805f01805461170390614cc6565b80601f016020809104026020016040519081016040528092919081815260200182805461172f90614cc6565b801561177a5780601f106117515761010080835404028352916020019161177a565b820191905f5260205f20905b81548152906001019060200180831161175d57829003601f168201915b505050505090806001015f9054906101000a900473ffffffffffffffffffffffffffffffffffffffff16908060020154908060030154905084565b6004602052815f5260405f2081815481106117ce575f80fd5b905f5260205f20015f915091509054906101000a900473ffffffffffffffffffffffffffffffffffffffff1681565b5f803373ffffffffffffffffffffffffffffffffffffffff1673ffffffffffffffffffffffffffffffffffffffff1681526020019081526020015f206003015f9054906101000a900460ff1615611889576040517f08c379a0000000000000000000000000000000000000000000000000000000008152600401611880906155d1565b60405180910390fd5b6040518060a001604052808581526020018481526020018381526020016001151581526020018215158152505f803373ffffffffffffffffffffffffffffffffffffffff1673ffffffffffffffffffffffffffffffffffffffff1681526020019081526020015f205f820151815f0190816119049190615109565b50602082015181600101908161191a9190615109565b50604082015181600201556060820151816003015f6101000a81548160ff02191690831515021790555060808201518160030160016101000a81548160ff0219169083151502179055509050506103e860035f3373ffffffffffffffffffffffffffffffffffffffff1673ffffffffffffffffffffffffffffffffffffffff1681526020019081526020015f208190555050505050565b5f803373ffffffffffffffffffffffffffffffffffffffff1673ffffffffffffffffffffffffffffffffffffffff1681526020019081526020015f206003015f9054906101000a900460ff16611a3c576040517f08c379a0000000000000000000000000000000000000000000000000000000008152600401611a339061565f565b60405180910390fd5b5f5b60015f3373ffffffffffffffffffffffffffffffffffffffff1673ffffffffffffffffffffffffffffffffffffffff1681526020019081526020015f2080549050811015611c18578260015f3373ffffffffffffffffffffffffffffffffffffffff1673ffffffffffffffffffffffffffffffffffffffff1681526020019081526020015f208281548110611ad657611ad56153c9565b5b905f5260205f2090600802015f015403611c05578160015f3373ffffffffffffffffffffffffffffffffffffffff1673ffffffffffffffffffffffffffffffffffffffff1681526020019081526020015f208281548110611b3a57611b396153c9565b5b905f5260205f209060080201600501541015611b8b576040517f08c379a0000000000000000000000000000000000000000000000000000000008152600401611b82906156c7565b60405180910390fd5b8160015f3373ffffffffffffffffffffffffffffffffffffffff1673ffffffffffffffffffffffffffffffffffffffff1681526020019081526020015f208281548110611bdb57611bda6153c9565b5b905f5260205f2090600802016005015f828254611bf89190614f39565b9250508190555050611c54565b8080611c10906151d8565b915050611a3e565b506040517f08c379a0000000000000000000000000000000000000000000000000000000008152600401611c4b906154db565b60405180910390fd5b5050565b60605f803373ffffffffffffffffffffffffffffffffffffffff1673ffffffffffffffffffffffffffffffffffffffff1681526020019081526020015f2060030160019054906101000a900460ff16611ce6576040517f08c379a0000000000000000000000000000000000000000000000000000000008152600401611cdd90615755565b60405180910390fd5b5f60045f3373ffffffffffffffffffffffffffffffffffffffff1673ffffffffffffffffffffffffffffffffffffffff1681526020019081526020015f20805480602002602001604051908101604052809291908181526020018280548015611da157602002820191905f5260205f20905b815f9054906101000a900473ffffffffffffffffffffffffffffffffffffffff1673ffffffffffffffffffffffffffffffffffffffff1681526020019060010190808311611d58575b505050505090505f805b8251811015611e2f5760025f848381518110611dca57611dc96153c9565b5b602002602001015173ffffffffffffffffffffffffffffffffffffffff1673ffffffffffffffffffffffffffffffffffffffff1681526020019081526020015f208054905082611e1a91906153f6565b91508080611e27906151d8565b915050611dab565b505f8167ffffffffffffffff811115611e4b57611e4a613f31565b5b604051908082528060200260200182016040528015611e8457816020015b611e71613da3565b815260200190600190039081611e695790505b5090505f805b8451811015612111575f5b60025f878481518110611eab57611eaa6153c9565b5b602002602001015173ffffffffffffffffffffffffffffffffffffffff1673ffffffffffffffffffffffffffffffffffffffff1681526020019081526020015f20805490508110156120fd5760025f878481518110611f0d57611f0c6153c9565b5b602002602001015173ffffffffffffffffffffffffffffffffffffffff1673ffffffffffffffffffffffffffffffffffffffff1681526020019081526020015f208181548110611f6057611f5f6153c9565b5b905f5260205f2090600602016040518060c00160405290815f82018054611f8690614cc6565b80601f0160208091040260200160405190810160405280929190818152602001828054611fb290614cc6565b8015611ffd5780601f10611fd457610100808354040283529160200191611ffd565b820191905f5260205f20905b815481529060010190602001808311611fe057829003601f168201915b5050505050815260200160018201805461201690614cc6565b80601f016020809104026020016040519081016040528092919081815260200182805461204290614cc6565b801561208d5780601f106120645761010080835404028352916020019161208d565b820191905f5260205f20905b81548152906001019060200180831161207057829003601f168201915b505050505081526020016002820154815260200160038201548152602001600482015481526020016005820154815250508484815181106120d1576120d06153c9565b5b602002602001018190525082806120e7906151d8565b93505080806120f5906151d8565b915050611e95565b508080612109906151d8565b915050611e8a565b508194505050505090565b5f803373ffffffffffffffffffffffffffffffffffffffff1673ffffffffffffffffffffffffffffffffffffffff1681526020019081526020015f206003015f9054906101000a900460ff166121a7576040517f08c379a000000000000000000000000000000000000000000000000000000000815260040161219e906157e3565b60405180910390fd5b5f5b60015f3373ffffffffffffffffffffffffffffffffffffffff1673ffffffffffffffffffffffffffffffffffffffff1681526020019081526020015f20805490508110156125b1578260015f3373ffffffffffffffffffffffffffffffffffffffff1673ffffffffffffffffffffffffffffffffffffffff1681526020019081526020015f208281548110612241576122406153c9565b5b905f5260205f2090600802015f01540361259e578160015f3373ffffffffffffffffffffffffffffffffffffffff1673ffffffffffffffffffffffffffffffffffffffff1681526020019081526020015f2082815481106122a5576122a46153c9565b5b905f5260205f2090600802016005015410156122f6576040517f08c379a00000000000000000000000000000000000000000000000000000000081526004016122ed906156c7565b60405180910390fd5b8160015f3373ffffffffffffffffffffffffffffffffffffffff1673ffffffffffffffffffffffffffffffffffffffff1681526020019081526020015f208281548110612346576123456153c9565b5b905f5260205f2090600802016004015f82825461236391906153f6565b925050819055508160015f3373ffffffffffffffffffffffffffffffffffffffff1673ffffffffffffffffffffffffffffffffffffffff1681526020019081526020015f2082815481106123ba576123b96153c9565b5b905f5260205f2090600802016005015f8282546123d79190614f39565b925050819055505f805f3373ffffffffffffffffffffffffffffffffffffffff1673ffffffffffffffffffffffffffffffffffffffff1681526020019081526020015f205f01805461242890614cc6565b80601f016020809104026020016040519081016040528092919081815260200182805461245490614cc6565b801561249f5780601f106124765761010080835404028352916020019161249f565b820191905f5260205f20905b81548152906001019060200180831161248257829003601f168201915b5050505050905060025f3373ffffffffffffffffffffffffffffffffffffffff1673ffffffffffffffffffffffffffffffffffffffff1681526020019081526020015f206040518060c0016040528083815260200160405180602001604052805f81525081526020015f81526020018581526020015f815260200142815250908060018154018082558091505060019003905f5260205f2090600602015f909190919091505f820151815f0190816125579190615109565b50602082015181600101908161256d9190615109565b5060408201518160020155606082015181600301556080820151816004015560a082015181600501555050506125b1565b80806125a9906151d8565b9150506121a9565b505050565b6001602052815f5260405f2081815481106125cf575f80fd5b905f5260205f2090600802015f9150915050805f0154908060010154908060020180546125fb90614cc6565b80601f016020809104026020016040519081016040528092919081815260200182805461262790614cc6565b80156126725780601f1061264957610100808354040283529160200191612672565b820191905f5260205f20905b81548152906001019060200180831161265557829003601f168201915b505050505090806003015490806004015490806005015490806006015490806007015f9054906101000a900473ffffffffffffffffffffffffffffffffffffffff16905088565b60605f803373ffffffffffffffffffffffffffffffffffffffff1673ffffffffffffffffffffffffffffffffffffffff1681526020019081526020015f2060030160019054906101000a900460ff16612747576040517f08c379a000000000000000000000000000000000000000000000000000000000815260040161273e90615871565b60405180910390fd5b5f60045f3373ffffffffffffffffffffffffffffffffffffffff1673ffffffffffffffffffffffffffffffffffffffff1681526020019081526020015f2080548060200260200160405190810160405280929190818152602001828054801561280257602002820191905f5260205f20905b815f9054906101000a900473ffffffffffffffffffffffffffffffffffffffff1673ffffffffffffffffffffffffffffffffffffffff16815260200190600101908083116127b9575b505050505090505f805b82518110156128905760015f84838151811061282b5761282a6153c9565b5b602002602001015173ffffffffffffffffffffffffffffffffffffffff1673ffffffffffffffffffffffffffffffffffffffff1681526020019081526020015f20805490508261287b91906153f6565b91508080612888906151d8565b91505061280c565b505f8167ffffffffffffffff8111156128ac576128ab613f31565b5b6040519080825280602002602001820160405280156128e557816020015b6128d2613dd5565b8152602001906001900390816128ca5790505b5090505f805b8451811015612b4c575f5b60015f87848151811061290c5761290b6153c9565b5b602002602001015173ffffffffffffffffffffffffffffffffffffffff1673ffffffffffffffffffffffffffffffffffffffff1681526020019081526020015f2080549050811015612b385760015f87848151811061296e5761296d6153c9565b5b602002602001015173ffffffffffffffffffffffffffffffffffffffff1673ffffffffffffffffffffffffffffffffffffffff1681526020019081526020015f2081815481106129c1576129c06153c9565b5b905f5260205f209060080201604051806101000160405290815f8201548152602001600182015481526020016002820180546129fc90614cc6565b80601f0160208091040260200160405190810160405280929190818152602001828054612a2890614cc6565b8015612a735780601f10612a4a57610100808354040283529160200191612a73565b820191905f5260205f20905b815481529060010190602001808311612a5657829003601f168201915b5050505050815260200160038201548152602001600482015481526020016005820154815260200160068201548152602001600782015f9054906101000a900473ffffffffffffffffffffffffffffffffffffffff1673ffffffffffffffffffffffffffffffffffffffff1673ffffffffffffffffffffffffffffffffffffffff1681525050848481518110612b0c57612b0b6153c9565b5b60200260200101819052508280612b22906151d8565b9350508080612b30906151d8565b9150506128f6565b508080612b44906151d8565b9150506128eb565b508194505050505090565b60065481565b5f803373ffffffffffffffffffffffffffffffffffffffff1673ffffffffffffffffffffffffffffffffffffffff1681526020019081526020015f206003015f9054906101000a900460ff16612be8576040517f08c379a0000000000000000000000000000000000000000000000000000000008152600401612bdf906158ff565b60405180910390fd5b5f805b60015f3373ffffffffffffffffffffffffffffffffffffffff1673ffffffffffffffffffffffffffffffffffffffff1681526020019081526020015f2080549050811015612cb25760015f3373ffffffffffffffffffffffffffffffffffffffff1673ffffffffffffffffffffffffffffffffffffffff1681526020019081526020015f208181548110612c8257612c816153c9565b5b905f5260205f2090600802016005015482612c9d91906153f6565b91508080612caa906151d8565b915050612beb565b5080831115612cf6576040517f08c379a0000000000000000000000000000000000000000000000000000000008152600401612ced9061598d565b60405180910390fd5b5f805f3373ffffffffffffffffffffffffffffffffffffffff1673ffffffffffffffffffffffffffffffffffffffff1681526020019081526020015f205f018054612d4090614cc6565b80601f0160208091040260200160405190810160405280929190818152602001828054612d6c90614cc6565b8015612db75780601f10612d8e57610100808354040283529160200191612db7565b820191905f5260205f20905b815481529060010190602001808311612d9a57829003601f168201915b50505050509050600560405180608001604052808381526020013373ffffffffffffffffffffffffffffffffffffffff16815260200186815260200185815250908060018154018082558091505060019003905f5260205f2090600402015f909190919091505f820151815f019081612e309190615109565b506020820151816001015f6101000a81548173ffffffffffffffffffffffffffffffffffffffff021916908373ffffffffffffffffffffffffffffffffffffffff1602179055506040820151816002015560608201518160030155505050505050565b60605f803373ffffffffffffffffffffffffffffffffffffffff1673ffffffffffffffffffffffffffffffffffffffff1681526020019081526020015f206003015f9054906101000a900460ff16612f20576040517f08c379a0000000000000000000000000000000000000000000000000000000008152600401612f1790615a1b565b60405180910390fd5b60025f3373ffffffffffffffffffffffffffffffffffffffff1673ffffffffffffffffffffffffffffffffffffffff1681526020019081526020015f20805480602002602001604051908101604052809291908181526020015f905b828210156130f3578382905f5260205f2090600602016040518060c00160405290815f82018054612fac90614cc6565b80601f0160208091040260200160405190810160405280929190818152602001828054612fd890614cc6565b80156130235780601f10612ffa57610100808354040283529160200191613023565b820191905f5260205f20905b81548152906001019060200180831161300657829003601f168201915b5050505050815260200160018201805461303c90614cc6565b80601f016020809104026020016040519081016040528092919081815260200182805461306890614cc6565b80156130b35780601f1061308a576101008083540402835291602001916130b3565b820191905f5260205f20905b81548152906001019060200180831161309657829003601f168201915b5050505050815260200160028201548152602001600382015481526020016004820154815260200160058201548152505081526020019060010190612f7c565b50505050905090565b5f602052805f5260405f205f91509050805f01805461311a90614cc6565b80601f016020809104026020016040519081016040528092919081815260200182805461314690614cc6565b80156131915780601f1061316857610100808354040283529160200191613191565b820191905f5260205f20905b81548152906001019060200180831161317457829003601f168201915b5050505050908060010180546131a690614cc6565b80601f01602080910402602001604051908101604052809291908181526020018280546131d290614cc6565b801561321d5780601f106131f45761010080835404028352916020019161321d565b820191905f5260205f20905b81548152906001019060200180831161320057829003601f168201915b505050505090806002015490806003015f9054906101000a900460ff16908060030160019054906101000a900460ff16905085565b6002602052815f5260405f20818154811061326b575f80fd5b905f5260205f2090600602015f9150915050805f01805461328b90614cc6565b80601f01602080910402602001604051908101604052809291908181526020018280546132b790614cc6565b80156133025780601f106132d957610100808354040283529160200191613302565b820191905f5260205f20905b8154815290600101906020018083116132e557829003601f168201915b50505050509080600101805461331790614cc6565b80601f016020809104026020016040519081016040528092919081815260200182805461334390614cc6565b801561338e5780601f106133655761010080835404028352916020019161338e565b820191905f5260205f20905b81548152906001019060200180831161337157829003601f168201915b5050505050908060020154908060030154908060040154908060050154905086565b6133bd84848460016117fd565b8060045f3373ffffffffffffffffffffffffffffffffffffffff1673ffffffffffffffffffffffffffffffffffffffff1681526020019081526020015f20908051906020019061340e929190613e29565b5050505050565b5f805f803373ffffffffffffffffffffffffffffffffffffffff1673ffffffffffffffffffffffffffffffffffffffff1681526020019081526020015f206003015f9054906101000a900460ff166134a2576040517f08c379a000000000000000000000000000000000000000000000000000000000815260040161349990615aa9565b60405180910390fd5b5f91505f90505f5b60015f3373ffffffffffffffffffffffffffffffffffffffff1673ffffffffffffffffffffffffffffffffffffffff1681526020019081526020015f20805490508110156135dd5760015f3373ffffffffffffffffffffffffffffffffffffffff1673ffffffffffffffffffffffffffffffffffffffff1681526020019081526020015f208181548110613541576135406153c9565b5b905f5260205f209060080201600301548361355c91906153f6565b925060015f3373ffffffffffffffffffffffffffffffffffffffff1673ffffffffffffffffffffffffffffffffffffffff1681526020019081526020015f2081815481106135ad576135ac6153c9565b5b905f5260205f20906008020160040154826135c891906153f6565b915080806135d5906151d8565b9150506134aa565b509091565b6005805490508210613629576040517f08c379a000000000000000000000000000000000000000000000000000000000815260040161362090615b11565b60405180910390fd5b5f803373ffffffffffffffffffffffffffffffffffffffff1673ffffffffffffffffffffffffffffffffffffffff1681526020019081526020015f206003015f9054906101000a900460ff166136b4576040517f08c379a00000000000000000000000000000000000000000000000000000000081526004016136ab90615b9f565b60405180910390fd5b5f600583815481106136c9576136c86153c9565b5b905f5260205f2090600402016040518060800160405290815f820180546136ef90614cc6565b80601f016020809104026020016040519081016040528092919081815260200182805461371b90614cc6565b80156137665780601f1061373d57610100808354040283529160200191613766565b820191905f5260205f20905b81548152906001019060200180831161374957829003601f168201915b50505050508152602001600182015f9054906101000a900473ffffffffffffffffffffffffffffffffffffffff1673ffffffffffffffffffffffffffffffffffffffff1673ffffffffffffffffffffffffffffffffffffffff1681526020016002820154815260200160038201548152505090508060400151821115613821576040517f08c379a000000000000000000000000000000000000000000000000000000000815260040161381890615c2d565b60405180910390fd5b5f81604001518383606001516138379190615c4b565b6138419190615cb9565b905080341015613886576040517f08c379a000000000000000000000000000000000000000000000000000000000815260040161387d90615d33565b60405180910390fd5b816020015173ffffffffffffffffffffffffffffffffffffffff166108fc8290811502906040515f60405180830381858888f193505050501580156138cd573d5f803e3d5ffd5b5082826040018181516138e09190614f39565b915081815250505f826040015103613a6f575f8490505b60016005805490506139099190614f39565b8110156139fe57600560018261391f91906153f6565b815481106139305761392f6153c9565b5b905f5260205f209060040201600582815481106139505761394f6153c9565b5b905f5260205f2090600402015f8201815f01908161396e9190615d66565b50600182015f9054906101000a900473ffffffffffffffffffffffffffffffffffffffff16816001015f6101000a81548173ffffffffffffffffffffffffffffffffffffffff021916908373ffffffffffffffffffffffffffffffffffffffff160217905550600282015481600201556003820154816003015590505080806139f6906151d8565b9150506138f7565b506005805480613a1157613a10615e4b565b5b600190038181905f5260205f2090600402015f8082015f613a329190613eb0565b600182015f6101000a81549073ffffffffffffffffffffffffffffffffffffffff0219169055600282015f9055600382015f905550509055613b02565b8160058581548110613a8457613a836153c9565b5b905f5260205f2090600402015f820151815f019081613aa39190615109565b506020820151816001015f6101000a81548173ffffffffffffffffffffffffffffffffffffffff021916908373ffffffffffffffffffffffffffffffffffffffff16021790555060408201518160020155606082015181600301559050505b5f805f3373ffffffffffffffffffffffffffffffffffffffff1673ffffffffffffffffffffffffffffffffffffffff1681526020019081526020015f205f018054613b4c90614cc6565b80601f0160208091040260200160405190810160405280929190818152602001828054613b7890614cc6565b8015613bc35780601f10613b9a57610100808354040283529160200191613bc3565b820191905f5260205f20905b815481529060010190602001808311613ba657829003601f168201915b5050505050905060025f3373ffffffffffffffffffffffffffffffffffffffff1673ffffffffffffffffffffffffffffffffffffffff1681526020019081526020015f206040518060c00160405280838152602001855f015181526020015f815260200186815260200184815260200142815250908060018154018082558091505060019003905f5260205f2090600602015f909190919091505f820151815f019081613c709190615109565b506020820151816001019081613c869190615109565b5060408201518160020155606082015181600301556080820151816004015560a08201518160050155505060025f846020015173ffffffffffffffffffffffffffffffffffffffff1673ffffffffffffffffffffffffffffffffffffffff1681526020019081526020015f206040518060c00160405280855f015181526020018381526020018681526020015f815260200184815260200142815250908060018154018082558091505060019003905f5260205f2090600602015f909190919091505f820151815f019081613d5b9190615109565b506020820151816001019081613d719190615109565b5060408201518160020155606082015181600301556080820151816004015560a0820151816005015550505050505050565b6040518060c0016040528060608152602001606081526020015f81526020015f81526020015f81526020015f81525090565b6040518061010001604052805f81526020015f8152602001606081526020015f81526020015f81526020015f81526020015f81526020015f73ffffffffffffffffffffffffffffffffffffffff1681525090565b828054828255905f5260205f20908101928215613e9f579160200282015b82811115613e9e578251825f6101000a81548173ffffffffffffffffffffffffffffffffffffffff021916908373ffffffffffffffffffffffffffffffffffffffff16021790555091602001919060010190613e47565b5b509050613eac9190613eed565b5090565b508054613ebc90614cc6565b5f825580601f10613ecd5750613eea565b601f0160209004905f5260205f2090810190613ee99190613eed565b5b50565b5b80821115613f04575f815f905550600101613eee565b5090565b5f604051905090565b5f80fd5b5f80fd5b5f80fd5b5f80fd5b5f601f19601f8301169050919050565b7f4e487b71000000000000000000000000000000000000000000000000000000005f52604160045260245ffd5b613f6782613f21565b810181811067ffffffffffffffff82111715613f8657613f85613f31565b5b80604052505050565b5f613f98613f08565b9050613fa48282613f5e565b919050565b5f67ffffffffffffffff821115613fc357613fc2613f31565b5b613fcc82613f21565b9050602081019050919050565b828183375f83830152505050565b5f613ff9613ff484613fa9565b613f8f565b90508281526020810184848401111561401557614014613f1d565b5b614020848285613fd9565b509392505050565b5f82601f83011261403c5761403b613f19565b5b813561404c848260208601613fe7565b91505092915050565b5f819050919050565b61406781614055565b8114614071575f80fd5b50565b5f813590506140828161405e565b92915050565b5f806040838503121561409e5761409d613f11565b5b5f83013567ffffffffffffffff8111156140bb576140ba613f15565b5b6140c785828601614028565b92505060206140d885828601614074565b9150509250929050565b5f8115159050919050565b6140f6816140e2565b82525050565b5f60208201905061410f5f8301846140ed565b92915050565b5f81519050919050565b5f82825260208201905092915050565b5f819050602082019050919050565b5f81519050919050565b5f82825260208201905092915050565b5f5b8381101561417557808201518184015260208101905061415a565b5f8484015250505050565b5f61418a8261413e565b6141948185614148565b93506141a4818560208601614158565b6141ad81613f21565b840191505092915050565b5f73ffffffffffffffffffffffffffffffffffffffff82169050919050565b5f6141e1826141b8565b9050919050565b6141f1816141d7565b82525050565b5f819050919050565b614209816141f7565b82525050565b5f608083015f8301518482035f8601526142298282614180565b915050602083015161423e60208601826141e8565b5060408301516142516040860182614200565b5060608301516142646060860182614200565b508091505092915050565b5f61427a838361420f565b905092915050565b5f602082019050919050565b5f61429882614115565b6142a2818561411f565b9350836020820285016142b48561412f565b805f5b858110156142ef57848403895281516142d0858261426f565b94506142db83614282565b925060208a019950506001810190506142b7565b50829750879550505050505092915050565b5f6020820190508181035f830152614319818461428e565b905092915050565b61432a816141d7565b8114614334575f80fd5b50565b5f8135905061434581614321565b92915050565b614354816141f7565b811461435e575f80fd5b50565b5f8135905061436f8161434b565b92915050565b5f805f805f805f60e0888a0312156143905761438f613f11565b5b5f61439d8a828b01614337565b97505060206143ae8a828b01614361565b96505060406143bf8a828b01614361565b955050606088013567ffffffffffffffff8111156143e0576143df613f15565b5b6143ec8a828b01614028565b94505060806143fd8a828b01614361565b93505060a061440e8a828b01614361565b92505060c061441f8a828b01614361565b91505092959891949750929550565b5f81519050919050565b5f82825260208201905092915050565b5f819050602082019050919050565b5f61010083015f83015161446d5f860182614200565b5060208301516144806020860182614200565b50604083015184820360408601526144988282614180565b91505060608301516144ad6060860182614200565b5060808301516144c06080860182614200565b5060a08301516144d360a0860182614200565b5060c08301516144e660c0860182614200565b5060e08301516144f960e08601826141e8565b508091505092915050565b5f61450f8383614457565b905092915050565b5f602082019050919050565b5f61452d8261442e565b6145378185614438565b93508360208202850161454985614448565b805f5b8581101561458457848403895281516145658582614504565b945061457083614517565b925060208a0199505060018101905061454c565b50829750879550505050505092915050565b5f6020820190508181035f8301526145ae8184614523565b905092915050565b5f80604083850312156145cc576145cb613f11565b5b5f6145d985828601614361565b92505060206145ea85828601614361565b9150509250929050565b5f6020828403121561460957614608613f11565b5b5f61461684828501614337565b91505092915050565b614628816141f7565b82525050565b5f6020820190506146415f83018461461f565b92915050565b5f6020828403121561465c5761465b613f11565b5b5f61466984828501614361565b91505092915050565b5f82825260208201905092915050565b5f61468c8261413e565b6146968185614672565b93506146a6818560208601614158565b6146af81613f21565b840191505092915050565b6146c3816141d7565b82525050565b5f6080820190508181035f8301526146e18187614682565b90506146f060208301866146ba565b6146fd604083018561461f565b61470a606083018461461f565b95945050505050565b5f806040838503121561472957614728613f11565b5b5f61473685828601614337565b925050602061474785828601614361565b9150509250929050565b5f6020820190506147645f8301846146ba565b92915050565b614773816140e2565b811461477d575f80fd5b50565b5f8135905061478e8161476a565b92915050565b5f805f80608085870312156147ac576147ab613f11565b5b5f85013567ffffffffffffffff8111156147c9576147c8613f15565b5b6147d587828801614028565b945050602085013567ffffffffffffffff8111156147f6576147f5613f15565b5b61480287828801614028565b935050604061481387828801614074565b925050606061482487828801614780565b91505092959194509250565b5f81519050919050565b5f82825260208201905092915050565b5f819050602082019050919050565b5f60c083015f8301518482035f8601526148738282614180565b9150506020830151848203602086015261488d8282614180565b91505060408301516148a26040860182614200565b5060608301516148b56060860182614200565b5060808301516148c86080860182614200565b5060a08301516148db60a0860182614200565b508091505092915050565b5f6148f18383614859565b905092915050565b5f602082019050919050565b5f61490f82614830565b614919818561483a565b93508360208202850161492b8561484a565b805f5b85811015614966578484038952815161494785826148e6565b9450614952836148f9565b925060208a0199505060018101905061492e565b50829750879550505050505092915050565b5f6020820190508181035f8301526149908184614905565b905092915050565b5f610100820190506149ac5f83018b61461f565b6149b9602083018a61461f565b81810360408301526149cb8189614682565b90506149da606083018861461f565b6149e7608083018761461f565b6149f460a083018661461f565b614a0160c083018561461f565b614a0e60e08301846146ba565b9998505050505050505050565b614a2481614055565b82525050565b5f60a0820190508181035f830152614a428188614682565b90508181036020830152614a568187614682565b9050614a656040830186614a1b565b614a7260608301856140ed565b614a7f60808301846140ed565b9695505050505050565b5f60c0820190508181035f830152614aa18189614682565b90508181036020830152614ab58188614682565b9050614ac4604083018761461f565b614ad1606083018661461f565b614ade608083018561461f565b614aeb60a083018461461f565b979650505050505050565b5f67ffffffffffffffff821115614b1057614b0f613f31565b5b602082029050602081019050919050565b5f80fd5b5f614b37614b3284614af6565b613f8f565b90508083825260208201905060208402830185811115614b5a57614b59614b21565b5b835b81811015614b835780614b6f8882614337565b845260208401935050602081019050614b5c565b5050509392505050565b5f82601f830112614ba157614ba0613f19565b5b8135614bb1848260208601614b25565b91505092915050565b5f805f8060808587031215614bd257614bd1613f11565b5b5f85013567ffffffffffffffff811115614bef57614bee613f15565b5b614bfb87828801614028565b945050602085013567ffffffffffffffff811115614c1c57614c1b613f15565b5b614c2887828801614028565b9350506040614c3987828801614074565b925050606085013567ffffffffffffffff811115614c5a57614c59613f15565b5b614c6687828801614b8d565b91505092959194509250565b5f604082019050614c855f83018561461f565b614c92602083018461461f565b9392505050565b7f4e487b71000000000000000000000000000000000000000000000000000000005f52602260045260245ffd5b5f6002820490506001821680614cdd57607f821691505b602082108103614cf057614cef614c99565b5b50919050565b7f55736572206e6f742072656769737465726564000000000000000000000000005f82015250565b5f614d2a601383614672565b9150614d3582614cf6565b602082019050919050565b5f6020820190508181035f830152614d5781614d1e565b9050919050565b5f81905092915050565b5f614d728261413e565b614d7c8185614d5e565b9350614d8c818560208601614158565b80840191505092915050565b5f614da38284614d68565b915081905092915050565b7f496e76616c696420757365726e616d65000000000000000000000000000000005f82015250565b5f614de2601083614672565b9150614ded82614dae565b602082019050919050565b5f6020820190508181035f830152614e0f81614dd6565b9050919050565b7f496e76616c69642070617373776f7264000000000000000000000000000000005f82015250565b5f614e4a601083614672565b9150614e5582614e16565b602082019050919050565b5f6020820190508181035f830152614e7781614e3e565b9050919050565b7f55736572206d757374206265207265676973746572656420746f2061646420615f8201527f2070616e656c0000000000000000000000000000000000000000000000000000602082015250565b5f614ed8602683614672565b9150614ee382614e7e565b604082019050919050565b5f6020820190508181035f830152614f0581614ecc565b9050919050565b7f4e487b71000000000000000000000000000000000000000000000000000000005f52601160045260245ffd5b5f614f43826141f7565b9150614f4e836141f7565b9250828203905081811115614f6657614f65614f0c565b5b92915050565b5f819050815f5260205f209050919050565b5f6020601f8301049050919050565b5f82821b905092915050565b5f60088302614fc87fffffffffffffffffffffffffffffffffffffffffffffffffffffffffffffffff82614f8d565b614fd28683614f8d565b95508019841693508086168417925050509392505050565b5f819050919050565b5f61500d615008615003846141f7565b614fea565b6141f7565b9050919050565b5f819050919050565b61502683614ff3565b61503a61503282615014565b848454614f99565b825550505050565b5f90565b61504e615042565b61505981848461501d565b505050565b5b8181101561507c576150715f82615046565b60018101905061505f565b5050565b601f8211156150c15761509281614f6c565b61509b84614f7e565b810160208510156150aa578190505b6150be6150b685614f7e565b83018261505e565b50505b505050565b5f82821c905092915050565b5f6150e15f19846008026150c6565b1980831691505092915050565b5f6150f983836150d2565b9150826002028217905092915050565b6151128261413e565b67ffffffffffffffff81111561512b5761512a613f31565b5b6151358254614cc6565b615140828285615080565b5f60209050601f831160018114615171575f841561515f578287015190505b61516985826150ee565b8655506151d0565b601f19841661517f86614f6c565b5f5b828110156151a657848901518255600182019150602085019450602081019050615181565b868310156151c357848901516151bf601f8916826150d2565b8355505b6001600288020188555050505b505050505050565b5f6151e2826141f7565b91507fffffffffffffffffffffffffffffffffffffffffffffffffffffffffffffffff820361521457615213614f0c565b5b600182019050919050565b7f55736572206d757374206265206c6f6767656420696e20746f207669657720705f8201527f616e656c73000000000000000000000000000000000000000000000000000000602082015250565b5f615279602583614672565b91506152848261521f565b604082019050919050565b5f6020820190508181035f8301526152a68161526d565b9050919050565b7f55736572206d757374206265206c6f6767656420696e20746f20616c6c6f63615f8201527f746520656e657267790000000000000000000000000000000000000000000000602082015250565b5f615307602983614672565b9150615312826152ad565b604082019050919050565b5f6020820190508181035f830152615334816152fb565b9050919050565b7f456e6572677920616d6f756e74206d75737420626520677265617465722074685f8201527f616e203000000000000000000000000000000000000000000000000000000000602082015250565b5f615395602483614672565b91506153a08261533b565b604082019050919050565b5f6020820190508181035f8301526153c281615389565b9050919050565b7f4e487b71000000000000000000000000000000000000000000000000000000005f52603260045260245ffd5b5f615400826141f7565b915061540b836141f7565b925082820190508082111561542357615422614f0c565b5b92915050565b7f457863656564732070616e656c206361706163697479000000000000000000005f82015250565b5f61545d601683614672565b915061546882615429565b602082019050919050565b5f6020820190508181035f83015261548a81615451565b9050919050565b7f50616e656c206e6f7420666f756e6400000000000000000000000000000000005f82015250565b5f6154c5600f83614672565b91506154d082615491565b602082019050919050565b5f6020820190508181035f8301526154f2816154b9565b9050919050565b7f55736572206d757374206265206c6f6767656420696e20746f2070726f6475635f8201527f6520656e65726779000000000000000000000000000000000000000000000000602082015250565b5f615553602883614672565b915061555e826154f9565b604082019050919050565b5f6020820190508181035f83015261558081615547565b9050919050565b7f5573657220616c726561647920726567697374657265640000000000000000005f82015250565b5f6155bb601783614672565b91506155c682615587565b602082019050919050565b5f6020820190508181035f8301526155e8816155af565b9050919050565b7f55736572206d757374206265206c6f6767656420696e20746f207570646174655f8201527f20656e657267792062616c616e63650000000000000000000000000000000000602082015250565b5f615649602f83614672565b9150615654826155ef565b604082019050919050565b5f6020820190508181035f8301526156768161563d565b9050919050565b7f4e6f7420656e6f75676820656e6572677920696e207468652070616e656c00005f82015250565b5f6156b1601e83614672565b91506156bc8261567d565b602082019050919050565b5f6020820190508181035f8301526156de816156a5565b9050919050565b7f4f6e6c792061206d616e616765722063616e207669657720616c6c207472616e5f8201527f73616374696f6e73000000000000000000000000000000000000000000000000602082015250565b5f61573f602883614672565b915061574a826156e5565b604082019050919050565b5f6020820190508181035f83015261576c81615733565b9050919050565b7f55736572206d757374206265206c6f6767656420696e20746f20636f6e73756d5f8201527f6520656e65726779000000000000000000000000000000000000000000000000602082015250565b5f6157cd602883614672565b91506157d882615773565b604082019050919050565b5f6020820190508181035f8301526157fa816157c1565b9050919050565b7f4f6e6c792061206d616e616765722063616e207669657720616c6c2070616e655f8201527f6c73000000000000000000000000000000000000000000000000000000000000602082015250565b5f61585b602283614672565b915061586682615801565b604082019050919050565b5f6020820190508181035f8301526158888161584f565b9050919050565b7f55736572206d757374206265206c6f6767656420696e20746f20706f737420655f8201527f6e6572677920666f722073616c65000000000000000000000000000000000000602082015250565b5f6158e9602e83614672565b91506158f48261588f565b604082019050919050565b5f6020820190508181035f830152615916816158dd565b9050919050565b7f4e6f7420656e6f75676820656e6572677920617661696c61626c6520696e20795f8201527f6f75722070616e656c7320746f2073656c6c0000000000000000000000000000602082015250565b5f615977603283614672565b91506159828261591d565b604082019050919050565b5f6020820190508181035f8301526159a48161596b565b9050919050565b7f55736572206d757374206265206c6f6767656420696e20746f207669657720745f8201527f72616e73616374696f6e73000000000000000000000000000000000000000000602082015250565b5f615a05602b83614672565b9150615a10826159ab565b604082019050919050565b5f6020820190508181035f830152615a32816159f9565b9050919050565b7f55736572206d757374206265206c6f6767656420696e20746f207669657720655f8201527f6e6572677920686973746f727900000000000000000000000000000000000000602082015250565b5f615a93602d83614672565b9150615a9e82615a39565b604082019050919050565b5f6020820190508181035f830152615ac081615a87565b9050919050565b7f496e76616c69642073616c6520696e64657800000000000000000000000000005f82015250565b5f615afb601283614672565b9150615b0682615ac7565b602082019050919050565b5f6020820190508181035f830152615b2881615aef565b9050919050565b7f55736572206d757374206265206c6f6767656420696e20746f2062757920656e5f8201527f6572677900000000000000000000000000000000000000000000000000000000602082015250565b5f615b89602483614672565b9150615b9482615b2f565b604082019050919050565b5f6020820190508181035f830152615bb681615b7d565b9050919050565b7f416d6f756e74206578636565647320617661696c61626c6520656e65726779205f8201527f666f722073616c65000000000000000000000000000000000000000000000000602082015250565b5f615c17602883614672565b9150615c2282615bbd565b604082019050919050565b5f6020820190508181035f830152615c4481615c0b565b9050919050565b5f615c55826141f7565b9150615c60836141f7565b9250828202615c6e816141f7565b91508282048414831517615c8557615c84614f0c565b5b5092915050565b7f4e487b71000000000000000000000000000000000000000000000000000000005f52601260045260245ffd5b5f615cc3826141f7565b9150615cce836141f7565b925082615cde57615cdd615c8c565b5b828204905092915050565b7f496e73756666696369656e74204554482073656e7400000000000000000000005f82015250565b5f615d1d601583614672565b9150615d2882615ce9565b602082019050919050565b5f6020820190508181035f830152615d4a81615d11565b9050919050565b5f81549050615d5f81614cc6565b9050919050565b818103615d74575050615e49565b615d7d82615d51565b67ffffffffffffffff811115615d9657615d95613f31565b5b615da08254614cc6565b615dab828285615080565b5f601f831160018114615dd8575f8415615dc6578287015490505b615dd085826150ee565b865550615e42565b601f198416615de687614f6c565b9650615df186614f6c565b5f5b82811015615e1857848901548255600182019150600185019450602081019050615df3565b86831015615e355784890154615e31601f8916826150d2565b8355505b6001600288020188555050505b5050505050505b565b7f4e487b71000000000000000000000000000000000000000000000000000000005f52603160045260245ffdfea26469706673582212207f38ea7548c7704ad02ff92cfc42fa095409a8599e03e023a1a9a92400d9478a64736f6c63430008150033",
  "immutableReferences": {},
  "source": "// SPDX-License-Identifier: MIT\r\npragma solidity ^0.8.0;\r\n\r\ncontract EnergyManagement {\r\n    struct Panel {\r\n        uint256 id;\r\n        uint256 capacity; // in kW\r\n        string location;\r\n        uint256 producedEnergy;\r\n        uint256 consumedEnergy;\r\n        uint256 energyBalance; // New variable to store energy balance\r\n        uint256 efficiency; // New variable to store panel efficiency\r\n        address owner;\r\n    }\r\n\r\n    struct Transaction {\r\n        string from;  // Store the name of the user\r\n        string to;\r\n        uint256 energyProduced;\r\n        uint256 energyConsumed;\r\n        uint256 tokensTransferred;\r\n        uint256 timestamp;\r\n    }\r\n\r\n    struct EnergySale {\r\n        string sellerName;\r\n        address sellerAddress;\r\n        uint256 energy;    // Amount of energy for sale (in kWh)\r\n        uint256 price;     // Price for the energy (in wei)\r\n    }\r\n\r\n    struct User {\r\n        string username;\r\n        string actualName;\r\n        bytes32 passwordHash;  // Store hashed password as bytes32\r\n        bool registered;\r\n        bool isManager;\r\n    }\r\n\r\n    mapping(address => User) public users;\r\n    mapping(address => Panel[]) public userPanels;\r\n    mapping(address => Transaction[]) public userTransactions;\r\n    mapping(address => uint256) public balances;\r\n    mapping(address => address[]) public managerToUsers; // Mapping from manager to their users\r\n    EnergySale[] public energySales;\r\n\r\n    uint256 public panelCount = 0;\r\n\r\n    // Register a new user with username, actual name, hashed password, and role\r\n    function register(string memory _username, string memory _actualName, bytes32 _passwordHash, bool _isManager) public {\r\n        require(!users[msg.sender].registered, \"User already registered\");\r\n        users[msg.sender] = User(_username, _actualName, _passwordHash, true, _isManager);\r\n\r\n        // Initialize the user's token balance if required (for token-based transactions)\r\n        balances[msg.sender] = 1000; // Example: 1000 tokens\r\n    }\r\n\r\n    // Register a manager and assign users to them\r\n    function registerManagerWithUsers(string memory _username, string memory _actualName, bytes32 _passwordHash, address[] memory _users) public {\r\n        register(_username, _actualName, _passwordHash, true);\r\n        managerToUsers[msg.sender] = _users;\r\n    }\r\n\r\n    // Function to add a panel to a user's array of panels\r\n    function addPanelToUser(\r\n        address _user,\r\n        uint256 _id,\r\n        uint256 _capacity,\r\n        string memory _location,\r\n        uint256 _producedEnergy,\r\n        uint256 _consumedEnergy,\r\n        uint256 _efficiency // Add efficiency parameter\r\n    ) public {\r\n        require(users[_user].registered, \"User must be registered to add a panel\");\r\n\r\n        uint256 initialEnergyBalance = _producedEnergy > _consumedEnergy ? _producedEnergy - _consumedEnergy : 0;\r\n\r\n        userPanels[_user].push(Panel({\r\n            id: _id,\r\n            capacity: _capacity,\r\n            location: _location,\r\n            producedEnergy: _producedEnergy,\r\n            consumedEnergy: _consumedEnergy,\r\n            energyBalance: initialEnergyBalance, // Initialize energyBalance with producedEnergy - consumedEnergy\r\n            efficiency: _efficiency, // Initialize efficiency\r\n            owner: _user\r\n        }));\r\n        panelCount++;\r\n    }\r\n\r\n    // Login function\r\n    function login(string memory _username, bytes32 _passwordHash) public view returns (bool) {\r\n        User memory user = users[msg.sender];\r\n        require(user.registered, \"User not registered\");\r\n        require(keccak256(abi.encodePacked(user.username)) == keccak256(abi.encodePacked(_username)), \"Invalid username\");\r\n        require(user.passwordHash == _passwordHash, \"Invalid password\");\r\n        return true;\r\n    }\r\n\r\n    // Function to post energy for sale\r\n    function postEnergyForSale(uint256 _energy, uint256 _price) public {\r\n        require(users[msg.sender].registered, \"User must be logged in to post energy for sale\");\r\n\r\n        // Calculate total available energy\r\n        uint256 totalAvailableEnergy = 0;\r\n        for (uint256 i = 0; i < userPanels[msg.sender].length; i++) {\r\n            totalAvailableEnergy += userPanels[msg.sender][i].energyBalance;\r\n        }\r\n        \r\n        require(_energy <= totalAvailableEnergy, \"Not enough energy available in your panels to sell\");\r\n\r\n        string memory sellerName = users[msg.sender].username;\r\n        energySales.push(EnergySale(sellerName, msg.sender, _energy, _price));\r\n    }\r\n\r\n    // Function to buy energy (payable to accept ETH)\r\n    function buyEnergy(uint256 saleIndex, uint256 _amount) public payable {\r\n        require(saleIndex < energySales.length, \"Invalid sale index\");\r\n        require(users[msg.sender].registered, \"User must be logged in to buy energy\");\r\n        EnergySale memory sale = energySales[saleIndex];\r\n\r\n        require(_amount <= sale.energy, \"Amount exceeds available energy for sale\");\r\n\r\n        // Calculate the total price in Wei for the requested amount\r\n        uint256 totalPrice = sale.price * _amount / sale.energy;\r\n        require(msg.value >= totalPrice, \"Insufficient ETH sent\");\r\n\r\n        // Transfer the ETH from the buyer to the seller\r\n        payable(sale.sellerAddress).transfer(totalPrice);\r\n\r\n        // Update the sale\r\n        sale.energy -= _amount;\r\n        if (sale.energy == 0) {\r\n            // Remove the sale from the list if all energy is bought\r\n            for (uint256 i = saleIndex; i < energySales.length - 1; i++) {\r\n                energySales[i] = energySales[i + 1];\r\n            }\r\n            energySales.pop();\r\n        } else {\r\n            energySales[saleIndex] = sale;\r\n        }\r\n\r\n        // Record the transaction\r\n        string memory buyerName = users[msg.sender].username;\r\n        userTransactions[msg.sender].push(Transaction(buyerName, sale.sellerName, 0, _amount, totalPrice, block.timestamp));\r\n        userTransactions[sale.sellerAddress].push(Transaction(sale.sellerName, buyerName, _amount, 0, totalPrice, block.timestamp));\r\n    }\r\n\r\n    // Function to record energy production\r\n    function produceEnergy(uint256 _panelId, uint256 _energy) public {\r\n        require(users[msg.sender].registered, \"User must be logged in to produce energy\");\r\n        for (uint256 i = 0; i < userPanels[msg.sender].length; i++) {\r\n            if (userPanels[msg.sender][i].id == _panelId) {\r\n                require(userPanels[msg.sender][i].energyBalance + _energy <= userPanels[msg.sender][i].capacity, \"Exceeds panel capacity\");\r\n                userPanels[msg.sender][i].producedEnergy += _energy;\r\n                userPanels[msg.sender][i].energyBalance += _energy;\r\n                string memory producerName = users[msg.sender].username;\r\n                userTransactions[msg.sender].push(Transaction(producerName, \"\", _energy, 0, 0, block.timestamp));\r\n                break;\r\n            }\r\n        }\r\n    }\r\n\r\n    // Function to record energy consumption\r\n    function consumeEnergy(uint256 _panelId, uint256 _energy) public {\r\n        require(users[msg.sender].registered, \"User must be logged in to consume energy\");\r\n        for (uint256 i = 0; i < userPanels[msg.sender].length; i++) {\r\n            if (userPanels[msg.sender][i].id == _panelId) {\r\n                require(userPanels[msg.sender][i].energyBalance >= _energy, \"Not enough energy in the panel\");\r\n                userPanels[msg.sender][i].consumedEnergy += _energy;\r\n                userPanels[msg.sender][i].energyBalance -= _energy;\r\n                string memory consumerName = users[msg.sender].username;\r\n                userTransactions[msg.sender].push(Transaction(consumerName, \"\", 0, _energy, 0, block.timestamp));\r\n                break;\r\n            }\r\n        }\r\n    }\r\n\r\n    // Function to display total energy history\r\n    function displayTotalEnergyHistory() public view returns (uint256 produced, uint256 consumed) {\r\n        require(users[msg.sender].registered, \"User must be logged in to view energy history\");\r\n        produced = 0;\r\n        consumed = 0;\r\n        for (uint256 i = 0; i < userPanels[msg.sender].length; i++) {\r\n            produced += userPanels[msg.sender][i].producedEnergy;\r\n            consumed += userPanels[msg.sender][i].consumedEnergy;\r\n        }\r\n    }\r\n\r\n    function displayTransactions() public view returns (Transaction[] memory) {\r\n        require(users[msg.sender].registered, \"User must be logged in to view transactions\");\r\n        \r\n        // Fetch all transactions for the logged-in user\r\n        return userTransactions[msg.sender];\r\n    }\r\n\r\n    // Function to display all panels\r\n    function displayPanels() public view returns (Panel[] memory) {\r\n        require(users[msg.sender].registered, \"User must be logged in to view panels\");\r\n        return userPanels[msg.sender];\r\n    }\r\n\r\n    // Function to get available energy sales\r\n    function getAvailableEnergySales() public view returns (EnergySale[] memory) {\r\n        return energySales;\r\n    }\r\n\r\n    // Function to allocate purchased energy to specific panels\r\n    function allocateEnergyToPanel(uint256 panelId, uint256 energyAmount) public {\r\n        require(users[msg.sender].registered, \"User must be logged in to allocate energy\");\r\n        require(energyAmount > 0, \"Energy amount must be greater than 0\");\r\n\r\n        for (uint256 i = 0; i < userPanels[msg.sender].length; i++) {\r\n            if (userPanels[msg.sender][i].id == panelId) {\r\n                require(userPanels[msg.sender][i].energyBalance + energyAmount <= userPanels[msg.sender][i].capacity, \"Exceeds panel capacity\");\r\n                userPanels[msg.sender][i].producedEnergy += energyAmount;\r\n                userPanels[msg.sender][i].energyBalance += energyAmount;\r\n                return;\r\n            }\r\n        }\r\n        revert(\"Panel not found\");\r\n    }\r\n\r\n    // Function to reduce energy balance after posting a sale\r\n    function reduceEnergyBalance(uint256 panelId, uint256 amount) public {\r\n        require(users[msg.sender].registered, \"User must be logged in to update energy balance\");\r\n        \r\n        for (uint256 i = 0; i < userPanels[msg.sender].length; i++) {\r\n            if (userPanels[msg.sender][i].id == panelId) {\r\n                require(userPanels[msg.sender][i].energyBalance >= amount, \"Not enough energy in the panel\");\r\n                userPanels[msg.sender][i].energyBalance -= amount;\r\n                return;\r\n            }\r\n        }\r\n        revert(\"Panel not found\");\r\n    }\r\n\r\n    // Function to display all panels for a manager\r\n    function displayManagedPanels() public view returns (Panel[] memory) {\r\n        require(users[msg.sender].isManager, \"Only a manager can view all panels\");\r\n\r\n        address[] memory managedUsers = managerToUsers[msg.sender];\r\n        uint256 totalPanels = 0;\r\n\r\n        // Calculate total panels managed by this manager\r\n        for (uint256 i = 0; i < managedUsers.length; i++) {\r\n            totalPanels += userPanels[managedUsers[i]].length;\r\n        }\r\n\r\n        Panel[] memory panels = new Panel[](totalPanels);\r\n        uint256 counter = 0;\r\n\r\n        // Populate the array with panels from all managed users\r\n        for (uint256 i = 0; i < managedUsers.length; i++) {\r\n            for (uint256 j = 0; j < userPanels[managedUsers[i]].length; j++) {\r\n                panels[counter] = userPanels[managedUsers[i]][j];\r\n                counter++;\r\n            }\r\n        }\r\n\r\n        return panels;\r\n    }\r\n\r\n    // Function to display all transactions for a manager\r\n    function displayManagedTransactions() public view returns (Transaction[] memory) {\r\n        require(users[msg.sender].isManager, \"Only a manager can view all transactions\");\r\n\r\n        address[] memory managedUsers = managerToUsers[msg.sender];\r\n        uint256 totalTransactions = 0;\r\n\r\n        // Calculate total transactions managed by this manager\r\n        for (uint256 i = 0; i < managedUsers.length; i++) {\r\n            totalTransactions += userTransactions[managedUsers[i]].length;\r\n        }\r\n\r\n        Transaction[] memory transactions = new Transaction[](totalTransactions);\r\n        uint256 counter = 0;\r\n\r\n        // Populate the array with transactions from all managed users\r\n        for (uint256 i = 0; i < managedUsers.length; i++) {\r\n            for (uint256 j = 0; j < userTransactions[managedUsers[i]].length; j++) {\r\n                transactions[counter] = userTransactions[managedUsers[i]][j];\r\n                counter++;\r\n            }\r\n        }\r\n\r\n        return transactions;\r\n    }\r\n}\r\n",
  "sourcePath": "D:\\ethp\\contracts\\Solarr.sol",
  "compiler": {
    "name": "solc",
    "version": "0.8.21+commit.d9974bed.Emscripten.clang"
  },
  "schemaVersion": "3.4.16",
  "updatedAt": "2024-08-20T18:45:48.086Z",
  "networkType": "ethereum",
  "devdoc": {
    "kind": "dev",
    "methods": {},
    "version": 1
  },
  "userdoc": {
    "kind": "user",
    "methods": {},
    "version": 1
  }
}